{"abi":[{"type":"function","name":"storePod","inputs":[{"name":"_data","type":"string","internalType":"string"}],"outputs":[],"stateMutability":"nonpayable"},{"type":"event","name":"PodStored","inputs":[{"name":"user","type":"address","indexed":true,"internalType":"address"},{"name":"data","type":"string","indexed":true,"internalType":"string"}],"anonymous":false}],"bytecode":{"object":"0x6080604052348015600f57600080fd5b506102bf8061001f6000396000f3fe608060405234801561001057600080fd5b506004361061002b5760003560e01c80630c853b7814610030575b600080fd5b61004361003e3660046100a6565b610045565b005b33600090815260208190526040902061005f8284836101b9565b508181604051610070929190610279565b6040519081900381209033907f8756f21c4a2b6b179da2cf2bfd156724e3ae8c1f5fc7d3e25d9483733e5d922190600090a35050565b600080602083850312156100b957600080fd5b823567ffffffffffffffff8111156100d057600080fd5b8301601f810185136100e157600080fd5b803567ffffffffffffffff8111156100f857600080fd5b85602082840101111561010a57600080fd5b6020919091019590945092505050565b634e487b7160e01b600052604160045260246000fd5b600181811c9082168061014457607f821691505b60208210810361016457634e487b7160e01b600052602260045260246000fd5b50919050565b601f8211156101b457806000526020600020601f840160051c810160208510156101915750805b601f840160051c820191505b818110156101b1576000815560010161019d565b50505b505050565b67ffffffffffffffff8311156101d1576101d161011a565b6101e5836101df8354610130565b8361016a565b6000601f84116001811461021957600085156102015750838201355b600019600387901b1c1916600186901b1783556101b1565b600083815260209020601f19861690835b8281101561024a578685013582556020948501946001909201910161022a565b50868210156102675760001960f88860031b161c19848701351681555b505060018560011b0183555050505050565b818382376000910190815291905056fea2646970667358221220df2b491578fe302a6bf49ed493b4e1dc1a7cd4f51a66740ef953fab7c99a759e64736f6c634300081b0033","linkReferences":{}},"methodIdentifiers":{"storePod(string)":"0c853b78"},"id":0}