{"abi":[{"type":"constructor","inputs":[],"stateMutability":"payable"},{"type":"function","name":"TARGET","inputs":[],"outputs":[{"name":"","type":"address","internalType":"contract CryoPod"}],"stateMutability":"view"},{"type":"function","name":"flagHash","inputs":[],"outputs":[{"name":"","type":"bytes32","internalType":"bytes32"}],"stateMutability":"view"},{"type":"function","name":"isSolved","inputs":[{"name":"flag","type":"string","internalType":"string"}],"outputs":[{"name":"","type":"bool","internalType":"bool"}],"stateMutability":"view"},{"type":"event","name":"DeployedTarget","inputs":[{"name":"at","type":"address","indexed":false,"internalType":"address"}],"anonymous":false}],"bytecode":{"object":"0x60a06040819052600080556011906072565b604051809103906000f080158015602c573d6000803e3d6000fd5b506001600160a01b031660808190526040519081527fc26ec5464cc58ea5f3597f1daab5d82585655e1bfd634b0a94fdd5ab63740dbf9060200160405180910390a1607f565b6102de8061024d83390190565b6080516101b46100996000396000608a01526101b46000f3fe608060405234801561001057600080fd5b50600436106100415760003560e01c80631455e4d7146100465780635e59d79014610062578063cc1f2afa14610085575b600080fd5b61004f60005481565b6040519081526020015b60405180910390f35b6100756100703660046100fa565b6100c4565b6040519015158152602001610059565b6100ac7f000000000000000000000000000000000000000000000000000000000000000081565b6040516001600160a01b039091168152602001610059565b6000805483836040516020016100db92919061016e565b6040516020818303038152906040528051906020012014905092915050565b6000806020838503121561010d57600080fd5b823567ffffffffffffffff81111561012457600080fd5b8301601f8101851361013557600080fd5b803567ffffffffffffffff81111561014c57600080fd5b85602082840101111561015e57600080fd5b6020919091019590945092505050565b818382376000910190815291905056fea26469706673582212206cece04654a3db2310968516546c68059312a84b477ae03fef2e3e84a4acac5564736f6c634300081b00336080604052348015600f57600080fd5b506102bf8061001f6000396000f3fe608060405234801561001057600080fd5b506004361061002b5760003560e01c80630c853b7814610030575b600080fd5b61004361003e3660046100a6565b610045565b005b33600090815260208190526040902061005f8284836101b9565b508181604051610070929190610279565b6040519081900381209033907f8756f21c4a2b6b179da2cf2bfd156724e3ae8c1f5fc7d3e25d9483733e5d922190600090a35050565b600080602083850312156100b957600080fd5b823567ffffffffffffffff8111156100d057600080fd5b8301601f810185136100e157600080fd5b803567ffffffffffffffff8111156100f857600080fd5b85602082840101111561010a57600080fd5b6020919091019590945092505050565b634e487b7160e01b600052604160045260246000fd5b600181811c9082168061014457607f821691505b60208210810361016457634e487b7160e01b600052602260045260246000fd5b50919050565b601f8211156101b457806000526020600020601f840160051c810160208510156101915750805b601f840160051c820191505b818110156101b1576000815560010161019d565b50505b505050565b67ffffffffffffffff8311156101d1576101d161011a565b6101e5836101df8354610130565b8361016a565b6000601f84116001811461021957600085156102015750838201355b600019600387901b1c1916600186901b1783556101b1565b600083815260209020601f19861690835b8281101561024a578685013582556020948501946001909201910161022a565b50868210156102675760001960f88860031b161c19848701351681555b505060018560011b0183555050505050565b818382376000910190815291905056fea2646970667358221220df2b491578fe302a6bf49ed493b4e1dc1a7cd4f51a66740ef953fab7c99a759e64736f6c634300081b0033","linkReferences":{}},"methodIdentifiers":{"TARGET()":"cc1f2afa","flagHash()":"1455e4d7","isSolved(string)":"5e59d790"},"id":1}